{
  "transactions": [
    {
      "hash": "0xd4eedd6b8e0c86f2016b257c296920e18bca99ad3e34b6ba8239fdff3ca84043",
      "transactionType": "CALL",
      "contractName": null,
      "contractAddress": "0xc8c711cdf3fd162b00f3447c6963c52af3d44aab",
      "function": "burn(uint256)",
      "arguments": [
        "500000000000000000000000000"
      ],
      "transaction": {
        "from": "0x023c6911c69b6c0e70a76c27b23fe1a32b08bf98",
        "to": "0xc8c711cdf3fd162b00f3447c6963c52af3d44aab",
        "gas": "0xd069",
        "value": "0x0",
        "input": "0x42966c680000000000000000000000000000000000000000019d971e4fe8401e74000000",
        "nonce": "0x8",
        "chainId": "0xaa36a7"
      },
      "additionalContracts": [],
      "isFixedGasLimit": false
    }
  ],
  "receipts": [
    {
      "status": "0x1",
      "cumulativeGasUsed": "0xa7e43d",
      "logs": [
        {
          "address": "0xc8c711cdf3fd162b00f3447c6963c52af3d44aab",
          "topics": [
            "0xddf252ad1be2c89b69c2b068fc378daa952ba7f163c4a11628f55a4df523b3ef",
            "0x000000000000000000000000023c6911c69b6c0e70a76c27b23fe1a32b08bf98",
            "0x0000000000000000000000000000000000000000000000000000000000000000"
          ],
          "data": "0x0000000000000000000000000000000000000000019d971e4fe8401e74000000",
          "blockHash": "0x5b4615a1c891fbf288504e284e8ebb98f21d12de952c1da46782259d38065285",
          "blockNumber": "0x94ba02",
          "blockTimestamp": "0x692dc384",
          "transactionHash": "0xd4eedd6b8e0c86f2016b257c296920e18bca99ad3e34b6ba8239fdff3ca84043",
          "transactionIndex": "0x41",
          "logIndex": "0xa9",
          "removed": false
        }
      ],
      "logsBloom": "0x00000000000000000000000000000000000000000000000000000000000000000000000000000000000000000000000000000000000000000000000000000000000000000000000000000008000000000000000000000000000000200040000000000000020000000000000000000800000000000000000000000010000000000000000000000000000000000000000000080000000000000000000000000000000000000000000000000000000000000000000000000000000000000800000000000002000000000000000000000000000000000000000000000000000020000400000000000000000000000000000000000000000000000000000000000000",
      "type": "0x2",
      "transactionHash": "0xd4eedd6b8e0c86f2016b257c296920e18bca99ad3e34b6ba8239fdff3ca84043",
      "transactionIndex": "0x41",
      "blockHash": "0x5b4615a1c891fbf288504e284e8ebb98f21d12de952c1da46782259d38065285",
      "blockNumber": "0x94ba02",
      "gasUsed": "0x8e81",
      "effectiveGasPrice": "0xf424b",
      "from": "0x023c6911c69b6c0e70a76c27b23fe1a32b08bf98",
      "to": "0xc8c711cdf3fd162b00f3447c6963c52af3d44aab",
      "contractAddress": null
    }
  ],
  "libraries": [],
  "pending": [],
  "returns": {},
  "timestamp": 1764606854003,
  "chain": 11155111,
  "commit": null
}