{
  "transactions": [
    {
      "hash": "0x0a881f5bc79effe7319678ab6db9b2a598a841e4ff90b7742172258221857a5e",
      "transactionType": "CALL",
      "contractName": null,
      "contractAddress": "0xc8c711cdf3fd162b00f3447c6963c52af3d44aab",
      "function": "approve(address,uint256)",
      "arguments": [
        "0xc8C711CDf3fD162b00F3447C6963C52aF3d44AAb",
        "50500000000000000000000000"
      ],
      "transaction": {
        "from": "0x023c6911c69b6c0e70a76c27b23fe1a32b08bf98",
        "to": "0xc8c711cdf3fd162b00f3447c6963c52af3d44aab",
        "gas": "0xfd73",
        "value": "0x0",
        "input": "0x095ea7b3000000000000000000000000c8c711cdf3fd162b00f3447c6963c52af3d44aab00000000000000000000000000000000000000000029c5ca7c4b6ce042800000",
        "nonce": "0x9",
        "chainId": "0xaa36a7"
      },
      "additionalContracts": [],
      "isFixedGasLimit": false
    }
  ],
  "receipts": [
    {
      "status": "0x1",
      "cumulativeGasUsed": "0x542d2a",
      "logs": [
        {
          "address": "0xc8c711cdf3fd162b00f3447c6963c52af3d44aab",
          "topics": [
            "0x8c5be1e5ebec7d5bd14f71427d1e84f3dd0314c0f7b2291e5b200ac8c7c3b925",
            "0x000000000000000000000000023c6911c69b6c0e70a76c27b23fe1a32b08bf98",
            "0x000000000000000000000000c8c711cdf3fd162b00f3447c6963c52af3d44aab"
          ],
          "data": "0x00000000000000000000000000000000000000000029c5ca7c4b6ce042800000",
          "blockHash": "0x1493ed5169207242fb94523563fe4b0f43fcdfb7238def310cbd2af5894f0ac6",
          "blockNumber": "0x94ba59",
          "blockTimestamp": "0x692dc798",
          "transactionHash": "0x0a881f5bc79effe7319678ab6db9b2a598a841e4ff90b7742172258221857a5e",
          "transactionIndex": "0x2d",
          "logIndex": "0x6b",
          "removed": false
        }
      ],
      "logsBloom": "0x00000000000000000000000000000000000000000000000000000000000000000000000000000000000000000000000000000000000000000000000000200000000000000000000000000008000000000000000000000000000000200040000000000000000000000000000000000000000000000000000000000000000000000000000000040000000000000000000000080000000000000000000000000000020000000000000000000000000000000000000000000000000000400800000000000000000000000000000000000000000000000000000000000000000000000410000000000000000000000000000000000000000000000004000000000000",
      "type": "0x2",
      "transactionHash": "0x0a881f5bc79effe7319678ab6db9b2a598a841e4ff90b7742172258221857a5e",
      "transactionIndex": "0x2d",
      "blockHash": "0x1493ed5169207242fb94523563fe4b0f43fcdfb7238def310cbd2af5894f0ac6",
      "blockNumber": "0x94ba59",
      "gasUsed": "0xb77f",
      "effectiveGasPrice": "0xf424a",
      "from": "0x023c6911c69b6c0e70a76c27b23fe1a32b08bf98",
      "to": "0xc8c711cdf3fd162b00f3447c6963c52af3d44aab",
      "contractAddress": null
    }
  ],
  "libraries": [],
  "pending": [],
  "returns": {},
  "timestamp": 1764607897334,
  "chain": 11155111,
  "commit": null
}