{
  "transactions": [
    {
      "hash": "0x2c37ef5a2f9e41f40ac9bd7946120c9741fb1e131bbc37e4d1ad7682b7b0fb06",
      "transactionType": "CALL",
      "contractName": null,
      "contractAddress": "0xc8c711cdf3fd162b00f3447c6963c52af3d44aab",
      "function": "mint(address,uint256)",
      "arguments": [
        "0x023c6911c69b6c0E70A76C27b23fe1A32b08Bf98",
        "500000000000000000000000000"
      ],
      "transaction": {
        "from": "0x023c6911c69b6c0e70a76c27b23fe1a32b08bf98",
        "to": "0xc8c711cdf3fd162b00f3447c6963c52af3d44aab",
        "gas": "0xc9bb",
        "value": "0x0",
        "input": "0x40c10f19000000000000000000000000023c6911c69b6c0e70a76c27b23fe1a32b08bf980000000000000000000000000000000000000000019d971e4fe8401e74000000",
        "nonce": "0x7",
        "chainId": "0xaa36a7"
      },
      "additionalContracts": [],
      "isFixedGasLimit": false
    }
  ],
  "receipts": [
    {
      "status": "0x1",
      "cumulativeGasUsed": "0xc649ec",
      "logs": [
        {
          "address": "0xc8c711cdf3fd162b00f3447c6963c52af3d44aab",
          "topics": [
            "0xddf252ad1be2c89b69c2b068fc378daa952ba7f163c4a11628f55a4df523b3ef",
            "0x0000000000000000000000000000000000000000000000000000000000000000",
            "0x000000000000000000000000023c6911c69b6c0e70a76c27b23fe1a32b08bf98"
          ],
          "data": "0x0000000000000000000000000000000000000000019d971e4fe8401e74000000",
          "blockHash": "0xe33f7eeac6dee33aa4875d23ebb73152c06d44206f4bd11902c8ba7a376f9304",
          "blockNumber": "0x94b9de",
          "blockTimestamp": "0x692dc1d4",
          "transactionHash": "0x2c37ef5a2f9e41f40ac9bd7946120c9741fb1e131bbc37e4d1ad7682b7b0fb06",
          "transactionIndex": "0x32",
          "logIndex": "0xb4",
          "removed": false
        }
      ],
      "logsBloom": "0x00000000000000000000000000000000000000000000000000000000000000000000000000000000000000000000000000000000000000000000000000000000000000000000000000000008000000000000000000000000000000200040000000000000020000000000000000000800000000000000000000000010000000000000000000000000000000000000000000080000000000000000000000000000000000000000000000000000000000000000000000000000000000000800000000000002000000000000000000000000000000000000000000000000000020000400000000000000000000000000000000000000000000000000000000000000",
      "type": "0x2",
      "transactionHash": "0x2c37ef5a2f9e41f40ac9bd7946120c9741fb1e131bbc37e4d1ad7682b7b0fb06",
      "transactionIndex": "0x32",
      "blockHash": "0xe33f7eeac6dee33aa4875d23ebb73152c06d44206f4bd11902c8ba7a376f9304",
      "blockNumber": "0x94b9de",
      "gasUsed": "0x920e",
      "effectiveGasPrice": "0xf424c",
      "from": "0x023c6911c69b6c0e70a76c27b23fe1a32b08bf98",
      "to": "0xc8c711cdf3fd162b00f3447c6963c52af3d44aab",
      "contractAddress": null
    }
  ],
  "libraries": [],
  "pending": [],
  "returns": {},
  "timestamp": 1764606421180,
  "chain": 11155111,
  "commit": null
}